:020000040800F2
:1000000000900020FD5C00084D5D00084D5D00087B
:1000100000000000000000000000000000000000E0
:100020000000000000000000000000004D5D00081E
:1000300000000000000000004D5D0008AF47000810
:100040004D5D0008000000004D5D00084D5D00089A
:100050004D5D000879480008894800089948000863
:10006000000000004D5D00084D5D00084D5D00087A
:100070004D5D00081D4500083545000800000000E2
:100080003D450008554500086D45000885450008B8
:100090009D450008B5450008CD450008051300083A
:1000A0001D1300084D5D00084D5D00086D530008EC
:0800B00085530008A15300086C
:1000B8000023C25C0133002AFBD1581E70470000A0
:1000C80002B4714649084900095649008E4402BCE9
:1000D8007047C04602B4714649084900095C4900A6
:1000E8008E4402BC7047C046002243088B4274D33A
:1000F80003098B425FD3030A8B4244D3030B8B4221
:1001080028D3030C8B420DD3FF22090212BA030C29
:100118008B4202D31212090265D0030B8B4219D30A
:1001280000E0090AC30B8B4201D3CB03C01A52412A
:10013800830B8B4201D38B03C01A5241430B8B4272
:1001480001D34B03C01A5241030B8B4201D30B035B
:10015800C01A5241C30A8B4201D3CB02C01A524182
:10016800830A8B4201D38B02C01A5241430A8B4245
:1001780001D34B02C01A5241030A8B4201D30B022E
:10018800C01A5241CDD2C3098B4201D3CB01C01A48
:10019800524183098B4201D38B01C01A5241430952
:1001A8008B4201D34B01C01A524103098B4201D340
:1001B8000B01C01A5241C3088B4201D3CB00C01AAD
:1001C800524183088B4201D38B00C01A5241430825
:1001D8008B4201D34B00C01A5241411A00D201464A
:1001E800524110467047FFE701B5002000F006F8BD
:1001F80002BDC0460029F7D076E770477047C04671
:10020800844608006146FFE71FB506F0F5FB0028A5
:1002180001D40021C8421FBD10B506F07DFB404245
:10022800013010BD10B506F0E7FB002801DB002007
:1002380010BD012010BDC04610B506F0DDFB00283A
:1002480001DD002010BD012010BDC04610B506F02C
:100258008BFB002801DC002010BD012010BDC0462A
:1002680010B506F081FB002801DA002010BD01203E
:1002780010BDC0461C2101231B04984201D3000C69
:1002880010391B0A984201D3000A08391B09984201
:1002980001D30009043902A2105C40187047C04617
:1002A8000403020201010101000000000000000037
:1002B80010B5064C2378002B07D1054B002B02D034
:1002C800044800E000BF0123237010BD9C000020FB
:1002D8000000000058730008044B10B5002B03D031
:1002E8000349044800E000BF10BDC04600000000FC
:1002F800A000002058730008012A02D101600020E4
:100308007047022A05D0032AF9D0002AF7D10260E3
:10031800F5E70B680360F2E710B50368984710BD6E
:100328001A221D4B10B51A7000225A70DA70063264
:100338001A711A4A032012689870110E5971110C1B
:1003480099711A72110A164AD97112680121140E8C
:10035800DC72140C1C73140A5C7302249A73114A1D
:10036800DC7312685972140E5C74140C9C741A7540
:10037800140A0D4A0831126899721974DC740B4C0E
:100388009975110ED975110C1976110A22605875D4
:1003980059769A7610BDC046C80300200000002098
:1003A800D0000020CC000020C8000020C40000209D
:1003B80000230200180010B58B4200DB10BDD45C8E
:1003C80001330019F8E7000013B51F2409220A2198
:1003D800084800F02BFA230016221721009406483B
:1003E80005F068F92300C222C3210094034805F0F0
:1003F80061F913BDE403002064020020000100201D
:1004080010B5024800F0A0FA10BDC046E403002071
:1004180030B5012185B0C52005F096FC0121C52025
:1004280005F0EEFC0121C12005F08EFC0121C12060
:1004380005F0E6FCFFF774FF254D264A2900D06A2F
:1004480088310860244B126B0A21DA6700232800E0
:100458001A0000F053FC00230193204B69460093D7
:100468001F4B280003931F4B029300F07FFA029B57
:10047800002B03D00322694668469847E1211A4CAD
:1004880006222000490205F085FA9621174D06221A
:100498002800890105F07EFA1549200005F006FBC1
:1004A80001F02EF80122134B13491860134B14481E
:1004B8001A70144A00F0AAFF280004F0EAFF002886
:1004C80001D105B030BD280005F0A2FAF4E7C04616
:1004D800E4030020F0780008EC0300201105000870
:1004E8002103000801030008000100206402002025
:1004F80070730008BC000020404B4C00B80000207E
:10050800CC050020C0E0F30110B5044800F0A0FFBE
:100518001B220349034800F0D0FA10BDCC05002087
:10052800C8030020E4030020F0B5544C85B0200037
:1005380004F0AFFF002800D19DE0514800F088FF8B
:10054800504E20223100200005F086FB4E4A3378B9
:100558000192422B00D08BE073784D2B00D087E0BE
:100568001E213000FFF724FFF37FB27F1B021343E5
:100578005BBA9BB2454C984200D075E0F57AB37AE5
:100588002D021D436DBA424BADB21D60737B327BA9
:100598001B0213435BBA9BB20293029A3D4B3E4F38
:1005A8001A60F37BB27B1B0213435BBA9BB20393C3
:1005B800039A3A4B3A491A60386806F065FA061CFD
:1005C800280006F02BFE011C301C05F081FE354981
:1005D80006F08CF8344E32493860306806F054FA28
:1005E800051C029806F01AFE011C281C05F070FE76
:1005F8002C4906F07BF82D4D29493060286806F013
:1006080043FA0290039806F009FE011C029805F0CF
:100618005FFE244906F06AF828602549200005F0A5
:1006280029FA02223968200005F0FCFA2149200045
:1006380005F020FA02223168200005F0F3FA1E497D
:10064800200005F017FA02222968200005F0EAFACE
:100658001A49200005F02AFAFFF762FE002301205C
:10066800019A136005B0F0BD2000154905F01EFA87
:10067800144B019A13600020F4E7C046640200207E
:10068800CC050020E0000020000000200001002030
:10069800DC000020D8000020D0000020D40000207A
:1006A8000000104100002041CC000020C8000020BC
:1006B800877300088F7300089F730008AE730008E3
:1006C800B5730008CCCCCCCC70B52E4800F0C0FE79
:1006D80000F016FF2C4C2D4D23782860012B04D0F8
:1006E800022B29D0022323703DE0FFF71DFF0028CD
:1006F80011D0274B274E186806F090FD264B306026
:10070800186806F08BFD254E254B3060186806F0FA
:1007180085FD244E3060244A296813682348CB1A83
:10072800834220D911602248224905F0BFF90021EF
:10073800C12005F065FBD5E71B4A1F491368C31A9A
:100748008B4210D910601D49194805F0AFF90121F5
:10075800C12005F055FB01232370194C200004F03B
:1007680098FE00280AD101212B68C520994305F07D
:1007780047FBFA20400005F083FB70BD200005F020
:1007880047F9EAE7CC050020B8000020C0000020A7
:10079800DC000020D0000020D8000020CC00002081
:1007A800D4000020C8000020BC000020204E00001B
:1007B80000010020C773000860EA0000E373000826
:1007C8006402002000207047038BC08A181A704703
:1007D800C28A018B0300914204D90169885C013205
:1007E800DA82704701204042FBE7C38A028B9A42B3
:1007F80002D90269D05C704701204042FBE7836D53
:1008080010B51800D4308268002A03D000225A8418
:10081800C368984710BD836810B50400002B02D048
:10082800032201009847200010BD0000FA23F7B505
:100838000700002605009B008360354BC437036022
:100848000C00019231000C224660380005F03CFC97
:10085800FE6010370C223100380005F035FC280006
:100868009C223100FE60283005F02EFCE3B21E2BDE
:1008780020D8E02227499B00D20022405C5814432C
:100888002B000833DC676B461B791E2B28D8E02227
:100898000198D200104002001E499B005B58134388
:1008A8002A008832136000232800EB612B842B6117
:1008B800AB82FEBDC0222240C02A0ED1CA2B0CD862
:1008C8003F23154923409B005B58E021114A9B00B8
:1008D8009B58C9000C401C43D2E701246442CFE76F
:1008E800C02201990A40C02A0ED1CA2B0CD83F2336
:1008F8000198094903409B005958E023054A89009B
:10090800DB008A580340CAE701235B42C8E7C046B8
:1009180010740008F0780008C478000870B5040066
:10092800283000F015FCE069002803D005F0D6FA5D
:100938000023E361002520692584A84202D005F040
:10094800CDFA2561A58270BD10B50400064B036081
:10095800FFF7E4FF2000D430FFF75DFF2000C4302C
:10096800FFF759FF200010BD10740008F0B589B0DA
:100978000E0004AC05000C220021200005F0A4FBA9
:100988000023B768E36001979F4206D00222310036
:100998002000B847F368B768019302AE2100082227
:1009A800300005F0D1FB2B00D4339C4622001900FF
:1009B80009C909C2634603CE03C3E0351A681F603C
:1009C8002B6820000793019B06922B60FFF723FFFB
:1009D80009B0F0BD70B5838A05000C008B420AD2BD
:1009E800202900D220242100286905F033FB0028A3
:1009F80002D02861AC8270BDFEE7F7B5846D0500B2
:100A08002600C436B368876E002B1AD0E28A238B7F
:100A18009A4216D339002000FFF7DCFF29003A007C
:100A28002069743105F090FB0023E382B3682783C3
:100A38000197002B01D106F087FC3000F36801A96B
:100A48009847F7BD802370B5DB0005000C0099427C
:100A580011D8038C99420BD90E00202900D22026E8
:100A68003100E86905F0F6FA002803D0E8612E8421
:100A7800200070BDFEE70024FAE737B56B46DD1DA0
:100A88002970431DDB7F0400002B0ED0418C0131FF
:100A9800FFF7D8FF002807D00120638C2978E26986
:100AA800D154638C013363843EBD01222900283070
:100AB80000F088FB43425841F6E770B5431DDB7FE1
:100AC80004000E001500002B13D0418C8918FFF785
:100AD800B9FF002802D10025280070BD638CE069A9
:100AE8002A00C018310005F02FFB638C5B19638462
:100AF800F2E792B2283000F065FB0028EBD1EBE773
:100B08000300006910B5002803D000219A8A05F077
:100B1800DBFA10BD0300C06910B5002803D000211E
:100B28001A8C05F0D1FA10BD70B500250400C582F5
:100B38000583FFF7E5FF65842000FFF7EBFF70BD35
:100B4800F0B504000F25083489B00600E06F05F001
:100B5800B7F8002105F0F8F8E36F1A092A40042ACB
:100B680000D975E03D49920051583D4C2B409B00FF
:100B78001A590B6913409A4260D08836306805F0DC
:100B88009FF8012105F0E0F8366833092B400293FD
:100B98002B00029A3340042A5DD89B001B59053567
:100BA80003930920FA21029A2C4B9200D758039BF1
:100BB8002C4CBB62A36889000493636801335843D3
:100BC8000193FFF791FA0022049B0593A36804930D
:100BD8000599049B994233D2059B01999C46049B35
:100BE800CB1A6344D218049B05939042EED809208F
:100BF800FA21039B8900BB61A368069367680137E4
:100C08007843FFF771FA0022069B0793A3680693BF
:100C18000799069B994217D20799069BFB1A5B18FE
:100C2800D218069B07939042F0D8013D002DB8D109
:100C3800300005F045F8290005F086F809B0F0BD48
:100C4800059B04995B1ACDE7079B06995B1AE7E7B2
:100C580000231B69FFDE00239B62FBE70C000020DA
:100C6800A074000810E000E0F7B504000026270093
:100C7800C682068301930D000092FFF741FF200012
:100C88006684A676FFF746FF231DDC67D437BB686A
:100C9800B34205D00322390038009847BE60FE6091
:100CA8000022631DDA77A61D6B00013DF37727004C
:100CB8006B425D412300009ABF33BE373D701A7006
:100CC800019A20005A702834FFF73AFF2000F27F7B
:100CD800074900F09BF93B78002B07D12000054914
:100CE80000F094FA2000044900F086FAF7BDC046E7
:100CF800A086010007080008030A000810B5C9B259
:100D0800FFF7B2FF10BD000010B509220A21024802
:100D1800FFF78CFD10BDC046C804002010B502487E
:100D2800FFF712FE10BDC046C8040020124A030097
:100D380010B5904217D1202002F006F8002811D1F2
:100D4800C0220E4B92015B6D1340802252019342E8
:100D580006D08022920193420CD0002B07D0FEE7E8
:100D6800074B186810BD074A00209342FAD101F0DA
:100D7800D7FFF7E70448F5E70054004000100240A9
:100D880044000020005800400024F400F0B5A3B04F
:100D98001091109A8849D20003005058984205D102
:100DA800881840680290002800D001E1834D580857
:100DB8008B5040191900FFF797F91C23109A804CA3
:100DC8005A4311590600480840191192FFF78CF947
:100DD800119B1290E718FA8A3B8B0B92B97E0B98FD
:100DE8003A8A13931218CB1C734313981992BA8931
:100DF80071431218323AD21A0392D2430398D21787
:100E080010400390FA890B98F318121A053AFF3A22
:100E1800D31A0493DB43049ADB171A4028000C9179
:100E280079680492FFF760F9B9681A902800FFF70B
:100E38005BF90C9A730032339B181793F518129BC1
:100E48000024159310231693113B1B900D940293C5
:100E5800220720920022E3B21893179B0A92EB1AFA
:100E68000F93199A0F998A4200D98DE00A9A20990E
:100E78000A431F92002294460992039A09998A42CA
:100E880077D8049A8A4274D3169A18998A4270D0ED
:100E98000D9A01320D92072A00D989E07A8A0B99B6
:100EA8001C92139A5218614652190E920C9AAA1A59
:100EB80007921F9A0A431E92002211990892404AEB
:100EC8005218219207990C9A52181C99914242D2B1
:100ED800079A323A920896423DD20E9A08995219C8
:100EE80001921E9A0595114300221D9106921B9AA4
:100EF80001998A4220D81A9A8A421DD3219A918A46
:100F0800059A8A4218D3964216D2129A0199891ADA
:100F1800C8170A181599424014928A420CD21D9A91
:100F2800069825491043109A0290D2008918189AF9
:100F380048601692149A15920699019A0131FF3168
:100F480006918021D2180192059A4902D218059279
:100F5800069A8A42CBD1089A013208920E9A0899C9
:100F6800D2180E92079AD218079280225200914204
:100F7800A8D1099AD2180992802252029444802258
:100F88005203944500D078E7802149038C460F9A94
:100F9800D2180F920A9A62440A9280220A9952043D
:100FA800914200D05DE70134AD19102C00D04FE715
:100FB800029823B0F0BDC046B405002000CA9A3B91
:100FC800347400080E4A030010B5914212D90D4A34
:100FD800914206D80068FFF7A9FE0121FFF7D6FE67
:100FE80010BD094A00209142FAD81868FFF79EFE02
:100FF8000221F3E70068FFF799FE0021EEE7C046FB
:10100800A0860100801A060040420F00F0B585B0A6
:10101800041E0091019200D187E0454EC06D310059
:1010280003F096FD434F05003900206E03F090FD54
:101038000100002D79D0002877D0280003F0A6FD04
:101048002060002871D03C4B251D98424ED180224B
:101058003A4B9203D96B1143D963D96B1140029172
:101068000299D96A0A43DA62DA6A35490A40DA62C9
:101078002300172264331A70324B1D603900206E2A
:1010880003F04CFD3100E06D03F048FD2368009942
:1010980063602000FFF796FF019B0022E3600123B5
:1010A80023612300A060A261626197331B78260048
:1010B800591E8B41DB042362230098331B780020E0
:1010C800591E8B415B046362230045331A706436F2
:1010D8000221305600F026FA0020305600F04CFA73
:1010E800280000F011FC00281BD0FEE7164B9842A0
:1010F800C4D18022114BD203D96B1143D963D96B68
:10110800114003910399D96A0A43DA62DA6A0F49EE
:101118000A40DA622300182264331A70094B5D60B2
:10112800ACE70223A0669534237005B0F0BDC04635
:101138007C78000834780008005400400010024011
:10114800FFFFDFFFAC05002000580040FFFFBFFF96
:1011580070B50400051D6420205600F019FA280017
:1011680000F031FC0321206E03F03CFC0321E06D0C
:1011780003F038FC23680E4A93420DD180220D4BB0
:101188009203D96A0A43DA62DA6A0B490A40DA62D8
:10119800DA6B0A40DA6370BD084A9342FBD18022B9
:1011A800044BD203D96A0A43DA62DA6A0449EDE7E2
:1011B8000054004000100240FFFFDFFF00580040CD
:1011C800FFFFBFFF70B5060014000120202A0AD8CF
:1011D80035000022943593B29C4205D800202A7825
:1011E8001219D2B22A7070BD2B78885C9B18F3183C
:1011F800743318700132EEE710B5002805D00029C5
:1012080003D0C166043000F0D3FC10BD10B500282F
:1012180005D0002903D00167043000F0C9FC10BDD7
:10122800F8B506009136337805000F00041F012B2E
:1012380009D1A36E002B06D0E36E20009847022345
:1012480033700023A3660023012F12D133702E00C0
:10125800226F90369A4202D02000337090472900BE
:10126800802332782800D2B270319B0400F0C6FB8C
:10127800F8BD0122A3663270A36E28007433E1180A
:1012880080235B0400F028FCF2E770B50600913675
:1012980033780400051F012B05D1AB6E002B02D05B
:1012A8002800EB6E98470223337000232000AB66BA
:1012B80000F07EFC70BD426E031F10B51F2A02DCD1
:1012C8009A6E01329A66020091321178CAB20129E7
:1012D80006D1996E8023703141185B0400F0FCFB45
:1012E80010BD0023903003707047030010B592338F
:1012F8001B78002B01D100F05BFC10BD044B10B52E
:101308001C68200000F068FC200000F09FFF10BD62
:10131800AC050020044B10B55C68200000F05CFCB4
:10132800200000F093FF10BDAC050020F0B52D4B58
:101338000E001B78150085B0002B04D00B002A4A3C
:101348007D3B93424BD8300005F0B8FF274905F0A4
:10135800CDF9274905F098FB002403900420A0400C
:1013680080B205F05BFF011C0190039805F0BEF9FF
:10137800270020490134E4B20290FEF767FF0028F5
:10138800ECD1062F2BD81C4C1C4B029823606760AD
:1013980004F086FF01380005194B000DA0609D423E
:1013A80017D023691748834213D0AE420ED92800BC
:1013B80005F084FF0D4905F099F90D4905F064FB26
:1013C800019905F093F904F06BFF01380005000D51
:1013D80020610723E2681A42FCD10B4B236005B059
:1013E800F0BDC046CD05002043E0F3010024744958
:1013F8000000FA4600F07F450030004055550000D7
:10140800C0E0F301FF0F0000AAAA000070B50C00AD
:101418000A4B7D3C9C4210D80124094B1D6E2C437D
:101428001C6602241D6E2542FCD0064B064C1C602F
:101438000124064B1C70FFF779FF70BD43E0F301F0
:101448000010024000300040CCCC0000CD05002048
:10145800034B1B78002B02D0024B034A1A607047DB
:10146800CD05002000300040AAAA00007047000007
:1014780070B5104B05001978002901D1012070BD05
:10148800FA208000FEF730FE0B4C01002068FEF7C2
:101498002BFE00F08DF8041EF0D1032DEED80200CB
:1014A80001202900404200F03DF8044B20001D6057
:1014B800E5E7C046040000204400002008000020A2
:1014C8008023084A5B00116810B50B4300201360A5
:1014D800FFF7CEFF041E03D1FFF7C8FF200010BDA1
:1014E8000124FBE700200240034A044B11681B78E3
:1014F8005B1813607047C046D00500200400002028
:10150800014B18687047C046D0050020034A0449BB
:1015180013680B40034313607047C0460000014046
:10152800FFF9FFFF10B5FF2403220B002100024042
:10153800D20091409B012340C943934000280ADB15
:10154800C0240B4A800880008018A40002590A4071
:101558001343035110BD0F2210400838054A800874
:1015680080008018C26911401943C161F2E7C04682
:1015780000E100E000ED00E0002805DB1F23184033
:101588001E3B8340014A13607047C04600E100E0FB
:10159800002809DB1F2318401E3B8340034AD367FA
:1015A800BFF34F8FBFF36F8F7047C04604E100E071
:1015B8008022431E5204012093420DD2C021074AC3
:1015C80007485360036A09061B021B0A0B430362A0
:1015D80000200723906013607047C04610E000E0C9
:1015E80000ED00E0002807DB1F23C02218401E3B47
:1015F8008340024952008B507047C04600E100E02A
:10160800704710B5FFF7FCFF10BD704710B5041EFA
:1016180001D1012010BD437FDAB2002B02D102773D
:10162800FFF7F3FF022363772379002B1CD11821DE
:101638002368124A5A619A688A439A6062792368D1
:10164800002A19D1013A60211A619A6800208A4358
:1016580061690A4380219A609A688A43A1690A43AA
:101668009A6001236377D5E72000E268A16800F05B
:1016780007F80028E2D0CCE72269E4E7B71DC104E7
:1016880030B5012504001E232800294202D130BDAF
:10169800013B21D30800D8402842F9D0102A17D09E
:1016A800102A07D8002A0AD00120082AEFD10F2BC8
:1016B800EDD804E00120182AE9D1062BE7D82068E4
:1016C8004161182183688B43134383600020DEE760
:1016D8000120072BF3D9DAE70120102AE0D1D6E759
:1016E800F0B5002808D0841DE37F411D022B05D0EA
:1016F8000423C3630023CB770120F0BD0E250268C5
:10170800466C1368AB4313603368104D2B4033604D
:10171800012316689E431660026C1B331A401B3B5C
:1017280093400B4E77683B437360C26C836C5A607E
:10173800036D002B05D01A682A401A60436D826D2C
:101748005A6001230020E377C877D6E7FFFEFFFF42
:1017580000000240F8B5811DCB7F022B03D0042383
:10176800C3630120F8BD0E2402681C271368456C6A
:10177800A3431360012314689C4314602A68104C27
:1017880022402A60026C0F4D3A4093406E68334302
:101798006B60C26C836C5A60036D002B05D01A68AD
:1017A80022401A60436D826D5A6001230022CB7774
:1017B800431DDA77836B934200D098470020D1E726
:1017C800FFFEFFFF000002400630C07FC0B2704736
:1017D80070B5084D0400EB68184202D0E86003F0C9
:1017E8003FF82B69234203D020002C6103F03CF81A
:1017F80070BDC0460018024003689A69920701D577
:1018080000229A6201229969114202D199690A4318
:101818009A61704730B5039C006823431204890518
:101828001A43890D054B45680A43640D234352004A
:101838009D4352082A43426030BDC046FF63FF0300
:1018480010B5426B1A4C0BB2A2421ED0194CA242E0
:101858001BD0194CA24218D0B822F224DB171A4028
:10186800CB07DB17234013438A0706D5F42213431B
:1018780001680A6813430B6010BD102901D190223A
:10188800F5E72029F4D10B43F2E7B822F224DB175D
:101898001A40CB07DB17234013438A07E6D41029E5
:1018A800EDD0202901D16022E1E74029EBD0DFE724
:1018B8004D21000875240008F11F0008002310B509
:1018C800CA0708D5030041331A7828231A40CA33B7
:1018D800282A00D1B03B8A0708D5020028244132C3
:1018E80012782240A2420BD14422134309B20029A4
:1018F80001DAB822134301680A689A430A6010BDE6
:10190800F422F2E77047000070B504000120002CB3
:101918004ED0250041352B78DAB2002B05D12300B3
:10192800403320001A70FFF7EDFF242301212B70AC
:101938002368E0681A68A6688A431A601D496268C5
:101948000A401A619A681C490A409A60012807D11E
:101958008022120232439A605A681848024009E00D
:101968008422120232439A600228F5D180225868F4
:10197800120102435A605868114A02435A60DA68F1
:1019880000200A40DA60616922690A43A1690902F4
:101998000A43DA60216AE2690A431A600122196877
:1019A8000A431A60202360642B702063423420703D
:1019B80070BDC046FFFFFFF0FF7FFFFFFFF7FFFF8F
:1019C80000800002704770B504000120002C13D07D
:1019D8002500242341352B70226813688343136044
:1019E8002000FFF7EFFF00202300606442332870D7
:1019F800206340341870207070BD0000F0B50600F8
:101A080085B002922822019103934136337804006D
:101A18001340934202D0012005B0F0BD019B002B7A
:101A280002D0029B002B03D180239B006364F2E762
:101A3800250025494035FFF741FF2B780220012B6F
:101A4800EAD001232B703378204F2A2B16D10100BE
:101A58002000FFF733FF23681A6812040ED51A68AE
:101A6800E06B3A401A60002808D0194B8363FFF7EF
:101A780071FE002802D0E06B836B984729233370EE
:101A88002300202242331A700023636423685A68B3
:101A98003A405A60019A6262029A6285628D228592
:101AA800039AE2620B4A996962639A69D20303D581
:101AB8000822114200D0DA610026200002492E7067
:101AC800FFF7BEFE3000A7E701800000FF7FFFFFA1
:101AD8009D26000881250008F7B5070000922822F6
:101AE800019341373B7804000D001340934201D025
:101AF8000120FEBD002902D0009B002B03D18023CA
:101B08009B006364F4E7260024494036FFF7D6FEBD
:101B180033780220012BECD0012131703B78292B3E
:101B280016D12000FFF7CAFE23681A6852040FD5A1
:101B38001A681B49A06B0A401A60002808D0194B84
:101B48008363FFF707FE002802D0A06B836B9847DA
:101B58002A233B702300202242331A700023636437
:101B6800236811495A680A405A60009A656262857A
:101B7800628D2285019AE2620C4A996962639A69C8
:101B8800D20303D40822114200D0DA6100252000D4
:101B980002493570FFF754FE2800AAE702800000CA
:101BA800FFBFFFFF9D260008FF7FFFFF812500087C
:101BB800020010B5413211780223202908D1802172
:101BC80026331370034B09024363FFF739FE0023E2
:101BD800180010BD81250008036810B599691A68B6
:101BE800436B002B00D0984710BD70477047030027
:101BF80070B500252022060042331D70013B19787C
:101C0800040040361A7021290AD111234563036361
:101C18002039FFF753FE20003570FFF7E6FF70BD4F
:101C28001223456303630221FFF748FE2000357045
:101C3800FFF7DCFFF3E700000100036810B50400BC
:101C480000201A6842310870510418D51A681849DA
:101C58000A401A60230041331A78292A14D1013A1C
:101C68001A702123200023630121FFF727FE230098
:101C78000022403320001A70FFF733FB10BD120416
:101C8800E8D51A680B49E3E71A782A2AF6D1023A06
:101C98001A702223200023630221FFF70FFE23007E
:101CA8000022403320001A70FFF705FBE6E7C04624
:101CB800FFBFFFFFFF7FFFFF0300F7B52822413377
:101CC8001B7804000168134093423CD1FE278D69BC
:101CD8008E698B68CA68ED030192C268360CED0FF5
:101CE8003E40022A25D19B059A0D5B0F73401800D0
:101CF80006263040334210D1A36C0133A364A36C91
:101D0800022B09D19B19A064CB61230040331870C2
:101D180029002000FFF784FAF7BD8021200009027E
:101D2800FFF7CCFD2300002240331A70019A3A4095
:101D3800EEE780210902FFF7C1FD230000224033AE
:101D48001A703200E4E70823CB6100234034237083
:101D5800E2E70000184B10B5C362002302000363DA
:101D68000400202041321070537004226363114232
:101D780012D02368596A636A1970636A013363620F
:101D8800238D002B08D0013B2385638D013B9BB23B
:101D98006385636C1A43626420000849FFF78EFD6F
:101DA800102223682000DA612300002240331A70D1
:101DB800FFF76BFA10BDC0460000FFFF038000006C
:101DC8007047704770470100020010B541310C7828
:101DD80000234032602C06D1403C0C700363137022
:101DE800FFF7F0FF10BD03631370FFF77EFAF9E702
:101DF80070B5050000220400413542302B7802708E
:101E08003A48283BE0626285626C0A436264022BAE
:101E18002BD803212000FFF751FD28232B70344BCA
:101E2800A06B6363236B002840D01A001021113A7D
:101E38008A433BD123681A68520403D51A682D498E
:101E48000A401A60FFF7C0FC01282BD0A06B2A4B70
:101E580000228363230040331A70FFF77BFC0028BD
:101E680023D0A06B836B98471FE020002349FFF71E
:101E780025FD2000FFF7C0FC2B78602B10D0202216
:101E88002A702368996911420AD09969103A114257
:101E980004D0DA61616C0C3A0A4362642022DA6188
:101EA8000023BDE72000FFF78EFF70BDE06B002820
:101EB800F8D01022123B9343F4D123681A68120415
:101EC80003D51A680E490A401A60FFF77DFC0128FD
:101ED800E8D0E06B084B00228363230040331A707C
:101EE800FFF738FC0028E0D0E06BBBE70000FFFFFD
:101EF80081250008FFBFFFFF9D2600080380000022
:101F0800FF7FFFFFF7B52023050006684135F36121
:101F18002B7804000F00212B2BD10121FFF7CEFCD9
:101F28001123236373682E4A13407360002363638D
:101F38002C4BE36210231F4204D0F361626C0C3B0C
:101F4800134363642B78602B05D17F0703D5736A2D
:101F5800DBB20193019B2000FFF74EFC636C2A78EB
:101F6800602A01D0002B0CD02000616CFFF740FFE5
:101F7800F7BD2B78222BD5D10221FFF79FFC122326
:101F8800CFE72A78212A13D1013A2A7022002100AA
:101F9800236342321078403113700B70402803D10C
:101FA8002000FFF70DFFE3E72000FFF71EFEDFE745
:101FB8002A78222ADCD1023A2A70220021002363DF
:101FC80042321078403113700B70402803D1200042
:101FD800FFF7F7FECCE72000FFF708FEC8E7C0468A
:101FE80000E800FE0000FFFFF7B506004036337832
:101FF80004000220012B15D0012333700F3319423E
:1020080011D01A420FD022682000D361626C0C3BB9
:10201800134320216364FFF713FC2000FFF7ECFB58
:1020280000203070FEBD0223194208D01A4206D0A3
:102038002368226D9A6201235B422365F0E74025FD
:102048000B063BD52A4239D001212000FFF736FC88
:1020580010212000FFF7F4FB638D002B29D0638D3E
:10206800FF2B1BD90023BF35E16C25850093802306
:102078002A0089B25B042000FFF7CCFB638D5B1B51
:102088009BB26385230041331A7823681968222A92
:1020980047D1802212020A431A60C1E70023658DE6
:1020A800E16CADB2258500938023EAB289B29B0426
:1020B800E1E729002000FFF79BFEB1E7294233D072
:1020C8002A4231D0270001212000FFF7F7FB4137D2
:1020D80010212000FFF7B4FB3B78223B5A425341C2
:1020E800174A9B029B18628DFF2A10D9FF25E16CC5
:1020F8002585009380232A0089B25B042000FFF71E
:1021080089FB638D5B1B9BB263853A78BDE7658D60
:10211800E16CADB2258500938023EAB289B29B04B5
:10212800ECE78022D201B6E72023194200D177E7F5
:102138001A4200D174E72000FFF7E4FE70E7C046BA
:1021480000200080F7B5070040373B7804000220E4
:10215800012B15D001233B700F33194211D01A42BD
:102168000FD022682000D361626C0C3B13432021FE
:102178006364FFF765FB2000FFF73EFB0020387023
:10218800FEBD4023080641D51A423FD02668326872
:102198009A433260638D002B2CD07168638D89055A
:1021A800890DFF2B17D9FF25802325855B04002087
:1021B800EAB200902000FFF72DFB638D5B1B9BB2FA
:1021C8006385413423783268222B10D180231B0287
:1021D80013433360D2E7658D1B4BE26AADB22585A8
:1021E8009A4201D0E36AE2E780239B04DFE7802379
:1021F800DB01EDE773689B0103D42000FFF7F7FCD0
:10220800BCE740212000FFF7F3FDB7E7194212D0E1
:102218001A4210D0638D002BF3D1226853689B01BA
:10222800ACD4E16A084B9942E7D180235168DB01BD
:102238000B435360A2E7202319429FD01A429DD036
:102248002000FFF75FFE99E70000FFFF70B58025CB
:1022580003686D0099691A68294206D0140604D5E6
:102268000124466C34434464DD618025ED00294235
:1022780006D0140604D50824466C34434464DD6152
:102288008024A400214206D0120604D50222416C03
:102298000A434264DC610B23416C194201D0FFF709
:1022A800A7FD70BDF7B5056806002B684136009399
:1022B800C36A04000193202330780F002138EB61B2
:1022C80009280CD8FDF706FF05680B0B0B0B0B6EE6
:1022D800056820005D49FFF7F1FA21232363802276
:1022E8006B68120213436B606B68594A20001340F5
:1022F8006B60FFF781FA009B5B0459D52B68554A40
:1023080013402B60A36B002B03D01B685B689BB248
:10231800638504231F420FD06A6A9F43636A1A7059
:10232800636A01336362238D002B05D0013B23854B
:10233800638D013B9BB26385638D002B03D004231F
:10234800626C1343636410231F4211D0009A1A422F
:102358000ED0628D002A49D13378282B33D18023BF
:10236800019A9B049A422ED139002000FFF7F2FC13
:102378002300002242331A70656C6263954244D090
:102388002000616CFFF734FD3378282B03D1390026
:102398002000FFF7DFFCF7BD20002F49FFF78EFA7A
:1023A80022239BE720002D49FFF788FA002395E7B1
:1023B8008022009B12021342ABD02B68284A13409C
:1023C8002B60E36B9FE731781022236829290BD112
:1023D80024490198884207D02000DA61FFF70CFAF7
:1023E8002000FFF729FCC3E7DA61C1E72268D3615F
:1023F8000423626C13436364019A1B4B1A42B7D1DE
:102408002000616CFFF7F4FCB2E72700E36A154A85
:10241800403793420CD02000FFF70EFC2023114ACE
:102428002000E262337025633D70FEF72EFFB2E7AD
:10243800202332782000337025633D70222A02D190
:10244800FEF739FFA7E7FEF74CFFA4E7018000007D
:1024580000E800FEFFBFFFFF0280000003800000CD
:10246800FF7FFFFF0000FFFFFFFFFFFEF8B505003D
:1024780040352E780400C36A0220012E0BD00138A3
:1024880028701F30014207D0024205D02000FFF714
:1024980009FF00202870F8BD102631425ED0324274
:1024A8005CD080273F0250043A401700C00F074312
:1024B80051D0E66B002E1DD0002A03D03268526836
:1024C800564272412600A76B4136002F05D00028DE
:1024D80003D038684068002801D0012A1CD132781E
:1024E800282A09D180229204934205D12000FFF7BF
:1024F80031FCCEE73200E5E7102130782268D1615F
:102508002928C6D11A488342C3D02000FFF774F99E
:102518002000FFF791FBBCE710212268D16104225B
:10252800616C0A4362643078124AC0B21342B0D177
:102538002138092808D8FDF7CDFD050C070707073E
:102548000707050C212323632000616CFFF750FC6B
:102558009FE72223F7E72368DE619AE708231942F9
:1025680097D01A4200D194E72000FFF7A5FB90E727
:102578000000FFFFFFFFFFFE70B5050040352E7815
:102588000400C36A0220012E0BD0013828701F30C6
:10259800014207D0024205D02000FFF783FE002049
:1025A800287070BD102001422FD002422DD0628DBC
:1025B800002A1CD1220041321078282807D1802017
:1025C8008004834203D12000FFF7C4FBE7E7102112
:1025D80010782268D1612928E1D12C488342DED0C5
:1025E8002000FFF709F92000FFF726FBD7E722684C
:1025F800D0610422616C0A436264254A1342CED139
:102608002000616CFFF7F4FBC9E70420014219D0F0
:10261800024217D0628D002A0DD02268516A626A80
:102628001170626A01326262228D013A2285628DDE
:10263800013A92B26285628D002AB0D1134A934260
:10264800ADD0D0E70820014205D0024203D02000D7
:10265800FFF732FBA3E702200142A0D002429ED03E
:10266800628D002A0DD0636A22681978013391625D
:102678006362638D013B9BB26385238D013B238598
:102688008DE7034A134200D089E7ACE70000FFFF5B
:10269800FFFFFFFE806A10B5836B002B01D000227C
:1026A8009A63C36B002B01D000229A63FFF78BFB60
:1026B80010BD000010B5114C1149236802000B40F1
:1026C80003432360802300209B009A420ED10D4BC8
:1026D8000D49186806235843FDF706FD8022431C60
:1026E800D200616908001040114200D110BD002BD2
:1026F80001D0013BF5E70320F8E7C0460070004031
:10270800FFF9FFFF4400002040420F00F0B504002D
:1027180085B0002802D1012005B0F0BD0368DB07B1
:1027280010D423689B075CD423681B0700D5C1E03D
:1027380023685B0700D5F2E0E369002B00D079E15C
:102748000020E9E73822AF4DAB681340EA68102B48
:1027580009D1D3439B0708D12B689B03E1D5636854
:10276800002BDED1D7E7082BF6D08022636852020F
:10277800934211D12A6813432B60FEF7C1FE8027CC
:102788000600BF022B683B42CBD1FEF7B9FE801B87
:102798006428F7D90320BFE7A021C9028B4208D1DA
:1027A80080232968DB020B432B602B681A432A60BD
:1027B800E3E72A6894490A402A602A6893490A404C
:1027C8002A60002BD9D1FEF79BFE80270600BF02A6
:1027D8002B683B42A5D0FEF793FE801B6428F7D9EF
:1027E800D8E73822874DAB681340EA68102B28D108
:1027F80003210A40022A26D12A68520503D5E26835
:10280800002A00D187E7696862698148120201409D
:102818000A436A60002B0CD12B687E4A7E4913401C
:10282800226913432B602B687C4A9B045B0FDA40B8
:102838000A607B4B1868FEF71BFE002800D173E77F
:1028480069E7002BD8D0E368002B20D02B68714AA9
:10285800802713402269FF0013432B6080232A68D6
:102868005B0013432B60FEF74BFE06002B683B42D0
:1028780007D06A68636966491B020A4013436B60A4
:1028880052E7FEF73DFE801B0228EFD982E72B684E
:10289800644A802713402B60FEF732FE0600FF00D3
:1028A8002B683B4200D13FE7FEF72AFE801B022837
:1028B800F6D96FE73822534DAB681340182B08D16F
:1028C8002B6E9B0700D433E7A369002B00D02FE7BA
:1028D80021E7A2690123002A10D02A6E0227134398
:1028E8002B66FEF70DFE06002B6E3B4200D01FE75D
:1028F800FEF706FE801B0228F6D94BE72A6E022750
:102908009A432A66FEF7FCFD06002B6E3B4200D177
:102918000EE7FEF7F5FD801B0228F6D93AE73822C4
:10292800384DAB681340202B08D1EB6D9B0700D4C2
:1029380002E7A368002B00D0FEE6ECE68022002127
:10294800EB6B52050091134208D1EB6B1343EB6319
:10295800EB6B13400393039B012300938027324EB4
:102968007F0033683B4215D0A368012B22D1EA6D62
:102978001343EB65FEF7C4FD02270600EB6D3B42EF
:1029880038D0009B012B00D0D6E6EB6B274A1340CA
:10299800EB63D1E633683B433360FEF7B1FD01904A
:1029A80033683B42E0D1FEF7ABFD019BC01A022819
:1029B800F6D9EFE6EA6D052B05D1013B1343EB652C
:1029C800EA6D0123D4E701218A43EA65EA6D033100
:1029D8008A43EA65002BCDD1FEF792FD0227060057
:1029E800EB6D3B42CDD0FEF78BFD114B801B98421F
:1029F800F6D9CFE6FEF784FD0D4B801B9842BDD972
:102A0800C8E6C04600100240FFFFFEFFFFFFFBFFC5
:102A1800FF80FFFFFFC7FFFF440000200024F400F1
:102A280008000020FFFEFFFF00700040FFFFFFEFDF
:102A38008813000038213F4DAA680A40102A51D057
:102A48003D4A022B38D12B68802713402B60FEF7B4
:102A580057FD0600BF042B683B4227D1616A236AF1
:102A6800EA680B43354980260A401343E26AB604F4
:102A78001343226B1343A26A12021343EB608023B1
:102A88002A685B0413432B608023EA685B051343C1
:102A9800EB60FEF735FD04002B68334200D04FE6AB
:102AA800FEF72EFD001B0228F6D973E6FEF728FD77
:102AB800801B0228CFD96DE62B68802613402B6037
:102AC800FEF71EFD0400B6042B68334204D1EB6800
:102AD8001B4A1340EB6033E6FEF712FD001B022889
:102AE800F2D957E6012B00D115E60322E868216ADE
:102AF80002408A4200D00EE67022616A02408A4291
:102B080000D008E6FE21A26AC901014012029142E2
:102B180000D000E6F822E16A920302408A4200D01F
:102B2800F9E5236B400F4007C01A431E9841C0B215
:102B3800F2E5C04600100240FFFFFFFE8C80C11F77
:102B4800FCFFFEEF382370B51D4CA2681A4205D170
:102B580023681C489B045B0FD84070BDA2681A40CC
:102B6800082A27D0A2681A40102A17D1E368E1681A
:102B7800DB43E5684906490F6F322D0A01311540DC
:102B88009B0709D11048FDF7AFFAE1686843490F80
:102B98000131FDF7A9FAE0E70A48F4E7A2681A400C
:102BA800202A09D0A26800201340182BD5D1FA207A
:102BB800C001D2E70448D0E780200002CDE7C04634
:102BC800001002400024F40000127A00F7B5040057
:102BD8000D00002801D10120FEBD0727484E3368AB
:102BE8003B408B422AD3226893073BD4D20748D470
:102BF800072733683B40AB420AD93368BB432B43B2
:102C08003360FEF77DFC019033683B40AB4268D1EE
:102C180023683C4D5B076CD4FFF794FFAB683A49D7
:102C28001B051B0F9B005B581F210B40D840374AE0
:102C3800374B10601868FEF71BFCCDE73368BB43C1
:102C48000B433360FEF75CFC019033683B40AB42BA
:102C5800C9D0FEF755FC019BC01A2E4B9842F4D9F7
:102C68000320B9E72749530704D5E0238868DB0127
:102C780003438B608B6828480340A06803438B603C
:102C8800B4E760681F4F032829D8FDF723FA20020C
:102C98001C243B689B039ED50722BB6893430343D0
:102CA800BB60FEF72DFC01903823BA681A406368B0
:102CB800DB009A429CD0FEF723FC019BC01A154BFF
:102CC8009842F1D9CCE73B689B01E5D483E73B68A0
:102CD8005B05E1D47FE73B6E9B07DDD47BE7FB6DAB
:102CE800FAE7FEF70DFC019BC01A0A4B98428BD9F4
:102CF800B6E7AB68094A1340E2681343AB608BE759
:102D08000020024000100240007500084400002026
:102D18000800002088130000FFF0FFFFFF8FFFFF6F
:102D2800064B07499B68074A5B045B0F9B005B588F
:102D38001F2110680B40D8407047C0460010024061
:102D4800E074000844000020802370B59B02050051
:102D5800674C98421FD1C022E36D92001340E26D88
:102D6800920704D580225200934200D1B7E0226E28
:102D7800920704D580229200934200D1B2E02268E3
:102D8800002092031FD55B4A5B489B185A42534167
:102D98005B42184017E00322E3681340022B13D06C
:102DA800E06810400338431E9841544B4042184095
:102DB800534BC018E168202D61D007D8012D2FD0C2
:102DC800022D49D0002070BD4E48F3E74906490F4F
:102DD8000131FDF789F98023802102001B01C90117
:102DE8009D4263D08D42EDD1636D9B0F9907002BF7
:102DF80021D080231B06994277D080230020DB0551
:102E08009942E0D1E368DB03DDD5E068E16840047E
:102E18008902400EC90E50430131FDF765F9D2E72A
:102E2800616D03220B001340114202D1FFF778FFB6
:102E3800C9E7012B02D1FFF785FEC4E722685205D6
:102E480001D5022B51D0E26D0020033B9207BAD581
:102E58005A425341D803B6E7616D0C220B00134068
:102E68001142E3D0042BE6D02268520501D5082B85
:102E78003BD0E26D00209207A5D50C3BE8E7616DD9
:102E8800C0220B00920113401142CFD08022520180
:102E98009342D0D022680020520500D493E71A4A02
:102EA80018489B185A4253415B4272E7C020636D31
:102EB80000021840884202D10020E368A3E70028F6
:102EC800B9D02268520503D58022120290420CD054
:102ED8000E4BC018434258410D4B404259E78020E1
:102EE800000270E7FA20C0016DE706486BE7C046AC
:102EF8000010024000FDFFFF90D0030000EE85FFA8
:102F080000127A000024F40000E0FFFF0040FFFFF9
:102F180080BB0000704770470222036870B5DD6807
:102F28001E69040016420DD015420BD0053A1A61ED
:102F3800043202779B699B0700D17CE001F0AFFB6C
:102F48000023237704231E4212D01D4210D00522ED
:102F5800236852421A61073222779A69C0239B007C
:102F680020001A4200D16CE001F099FB002323777E
:102F780008231E420FD01D420DD009222368524259
:102F88001A610D322277DB6920009B075FD001F0C0
:102F980086FB0023237710231E4211D01D420FD039
:102FA8001122236852421A6119322277DA69C02342
:102FB8009B0020001A4250D001F071FB00232377B8
:102FC80001231E4208D01D4206D002222368524225
:102FD80020001A6101F038FB82239B011E4207D0B2
:102FE8002B0605D52368204A20001A6100F0B7F89F
:102FF800F30507D52B0605D523681C4A20001A615E
:1030080000F0AEF840231E4208D01D4206D04122EF
:103018002368524220001A61FFF77DFF20231E42D9
:1030280008D01D4206D021222368524220001A618E
:1030380000F094F870BD01F02EFB2000FFF76AFF46
:103048007EE701F028FB2000FFF764FF8EE701F020
:1030580022FB2000FFF75EFF9BE701F01CFB20002E
:10306800FFF758FFAAE7C0467FDFFFFFFFFEFFFF1D
:1030780010B51E4C0368A0420AD01D4A904207D0E2
:103088001C4A904209D11C4A1A40CB6813430DE0F0
:10309800702293434A681343F5E7184A9042F2D0E6
:1030A800174A9042EFD0174A9042ECD080229343BF
:1030B8004A69134303608B68C3620B688362A0424A
:1030C80008D00E4B984205D00D4B984202D00D4BBC
:1030D800984201D10B6903630122426103691342DB
:1030E80002D003699343036110BDC046002C014020
:1030F8000004004000200040FFFCFFFF00400140AA
:10310800004401400048014070B504000120002C33
:1031180023D025003D352B78DAB2002B05D12300CA
:103128003C3320001A7001F0C1FE02232B70206886
:10313800211DFFF79DFF2200012300204832137054
:1031480047340A3A137053709370D37013715371E4
:103158009371D371137223702B7070BD70477047D1
:103168007047000030B5EFF31084012282F3108815
:103178000168134D0B682B400B6084F31088EFF344
:10318800108182F3108802680E4C93682340936084
:1031980081F31088C36E012B0AD1EFF3108183F3FA
:1031A8001088102402681368A343136081F3108801
:1031B800030020228C331A600023C366436730BDA6
:1031C800DFFEFFFFFEFFFFEF30B5EFF310840122B3
:1031D80082F31088802501680B68AB430B6084F389
:1031E8001088EFF3108182F310884023026810687A
:1031F8000343136081F3108830BD030088331B68D4
:1032080010B5212B06D1020056321388002B02D1AB
:10321800FFF7DAFF10BD036D01681C7801338C627B
:1032280003651388013B9BB21380F3E703008833DF
:103238001B6810B5212B06D1010056310B88002BD5
:1032480002D1FFF7C1FF10BD026D04681388023276
:10325800DB05DB0DA36202650B88013B9BB20B808B
:10326800F1E70000030088331B6870B5212B21D1DA
:103278000300010080246A331B885631002B19D0C3
:103288000A88002A17D1EFF31084013282F31088DC
:103298000168114D8B682B408B6084F31088EFF325
:1032A800108182F31088402302681068034313607A
:1032B80081F3108870BD0568EA69224208D0026D62
:1032C80016780132AE6202650A88013A92B20A8023
:1032D800013B9BB2D2E7C046FFFF7FFF0300883364
:1032E8001B6870B5212B21D10300010080246A33AB
:1032F8001B885631002B19D00A88002A17D1EFF302
:103308001084013282F310880168124D8B682B40BB
:103318008B6084F31088EFF3108182F310884023C8
:10332800026810680343136081F3108870BD066853
:10333800F26922420AD0056D2A880235D205D20DDB
:10334800B26205650A88013A92B20A80013B9BB2D3
:10335800D0E7C046FFFF7FFF7047000030B505008B
:1033680088352C6803000220202C38D10138002928
:1033780035D0002A33D080209C684001844205D192
:103388001869002802D10130014228D119651900B5
:1033980054310A804A801A0000219032116021229B
:1033A80080212A608022586E92054901904217D1E7
:1033B800154A8C4204D11969144A002900D0124ACE
:1033C8009A67EFF31081012282F310881A6880232C
:1033D80090681B040343936081F31088002030BD7C
:1033E8000B4A8C4204D119690A4A002900D0084ABC
:1033F8009A67EFF31081012282F310881A688023FC
:10340800106803431360E7E76D320008E5320008EF
:103418000332000835320008806A0023020010B524
:103428005E321380083A138001F07AFF10BD7047AE
:10343800F7B50168C14DCB6904000A6888682B425A
:1034480010D120252B4200D19BE08026760515401F
:103458000640354300D194E0636F2000002B00D074
:1034680085E085E0B64D05400095B64D009E1540B7
:10347800354300D185E0250001269035334205D03B
:10348800D70503D50E622F683E432E6002263342CD
:103498000CD0C7070AD527000E6290373E680197FF
:1034A800B446042667463E43019F3E6004263342E5
:1034B8000CD0C7070AD527000E6290373E680197DF
:1034C800B446022667463E43019F3E600826B4463E
:1034D800334209D02027009E1740374304D0664660
:1034E8000E622F683E432E6080263601334206D096
:1034F800570104D50E6220212E68314329602968BE
:10350800002935D020210B420AD080235B051140C9
:103518000340194304D0636F002B01D02000984763
:1035280022682B684027966828223E4013402000D6
:103538001E4322D0FFF716FE23689B683B4218D033
:10354800EFF31081012383F31088250004CD9368DD
:10355800BB43936081F31088E86F002809D07A4B49
:103568008363FEF7F7F8002802D0E86F836B98476B
:10357800F7BD200001F0D4FEFAE701F0D1FE2E607D
:10358800F6E7E56E012D00D09FE01026334200D10A
:103598009BE0324200D198E00E62896840230A001D
:1035A8001A40194257D0211DCA6F1068426892B25A
:1035B800002ADDD027005C373F889742D8D92700FA
:1035C8005E373A80026820208446104000906046AA
:1035D800024232D1EFF3108785F3108820685B4EE2
:1035E80002683240026087F31088EFF3108785F392
:1035F800108820688268AA43826087F31088EFF3F6
:10360800108785F31088206882689A43826087F360
:103618001088230062468C331A60009BE366EFF340
:10362800108085F3108822680F351368AB43136048
:1036380080F31088C86FFEF753F80223220023672F
:1036480023005C325E331B881188C91A89B22000B6
:10365800FFF7EDFE8CE721005E310B8809889BB2ED
:10366800002900D184E721005C310988C91A89B290
:10367800002900D17CE7EFF3108785F310882068D4
:10368800334E03683340036087F31088EFF31087E5
:1036980085F3108820682F4E83683340836087F352
:1036A8001088230020208C331860E2666267EFF3ED
:1036B800108085F31088102522681368AB431360C7
:1036C80080F3108802232367C1E780256D032B420E
:1036D80006D0460204D520000D6201F06FFE47E7D0
:1036E80080210B4207D080252D041140284001433A
:1036F80001D0A36FB1E640210B4216D00A4214D084
:10370800EFF31080012383F31088226813688B433A
:10371800136080F310882300202288331A60002366
:103728002000A36701F0F5FD22E7190214D5510026
:1037380012D5200000F040FE1AE7C0460F0800002E
:10374800010000102001000421340008FFFEFFFFE3
:10375800DFFEFFFFFEFFFFEFDB0100D408E7002AD2
:1037680000DB05E7200000F026FE01E701008C31B0
:103778000A68F8B50368222A5AD1040060345B6AE3
:103788002488826D234013700200836D5E320133FA
:1037980083651388013B9BB2138013889CB2002B6E
:1037A80042D1EFF31086013383F310880568234F65
:1037B8002A683A402A6086F31088EFF3108683F36C
:1037C80010880568AA689A43AA6086F310882022A0
:1037D8000A60026804675268446712020AD5EFF368
:1037E800108183F310880268154C13682340136016
:1037F80081F31088C36E012B17D10022C266EFF344
:10380800108483F3108801680F330A689A430A60AA
:1038180084F310880268D169194200D0136203004A
:103828005C331988FFF703FEF8BD01F06BFDFBE779
:10383800082299690A439A61F6E7C046DFFEFFFF4E
:10384800FFFFFFFB02008C321168F8B503682229DC
:1038580059D104006034596A2488836D2140198045
:103868000100023383655E310B88013B9BB20B80FC
:103878000B889CB2002B42D1EFF31086013383F3FF
:1038880010880568224F29683940296086F3108816
:10389800EFF3108683F310880568A9689943A96037
:1038A80086F3108820211160026804675268446713
:1038B80012020AD5EFF3108183F310880268154CC1
:1038C80013682340136081F31088C36E012B17D14E
:1038D8000022C266EFF3108483F3108801680F3367
:1038E8000A689A430A6084F310880268D169194209
:1038F80000D0136203005C331988FFF798FDF8BD08
:1039080001F000FDFBE7082299690A439A61F6E78E
:10391800DFFEFFFFFFFFFFFBF0B5036885B0DD6941
:103928001A68040003929A68019202008C321268A5
:10393800222A00D0C8E0030068331B88002B08D176
:1039480023005E331B889AB2002B00D09CE005B0A0
:10395800F0BD030060331B88029320231D42EFD083
:103968002600236802995B6AA26D0B401370A36D51
:103978005E360133A36533882268013B9BB23380EE
:103988000723D5691D422FD0063B1D4208D0039955
:10399800C90505D5210013629031086803430B60FF
:1039A80002231D4209D00199C90706D521001362D7
:1039B80090310868DB1803430B6004231D4209D0CB
:1039C8000199C90706D51362220090321168023B9B
:1039D8000B431360270090373B68002B04D020006E
:1039E80001F09EFC00233B60338899B2002BB4D1D0
:1039F800EFF31086013383F310882068354F02688F
:103A08003A40026086F31088EFF3108683F310883B
:103A18002068314F82683A40826086F3108822001D
:103A280020208C3210602268216752686167120278
:103A38000AD5EFF3108183F31088226827481368AA
:103A48000340136081F31088E36E012B18D1002224
:103A5800E266EFF3108083F3108821680F330A6859
:103A68009A430A6080F310882268D169194200D00D
:103A7800136223005C3320001988FFF7D8FC6CE739
:103A8800200001F03FFC68E7230068331B8893425D
:103A980000D85CE7EFF31080012282F310882168D8
:103AA8000F4D8B682B408B6080F310880D4B63673C
:103AB800EFF3108182F310882023226810680343F3
:103AC800136081F3108842E7082299690A439A61D2
:103AD8003DE7C046FFFEFFFFFEFFFFEFFFFFFFFBD6
:103AE800FFFFFFEF75370008F0B5036885B0DD69A3
:103AF8001A68040003929A68019202008C321268D4
:103B0800222A00D0C6E0030068331B88002B08D1A6
:103B180023005E331B889AB2002B00D09AE005B0D0
:103B2800F0BD030060331B88029320231D42EFD0B1
:103B3800260023680298596AA26D0140118002325A
:103B4800A2655E363288013A92B232800722DD6978
:103B580015422FD0063A154208D00399C90505D554
:103B680021001A629031086802430A600222154255
:103B780009D00199C90706D521001A629031086851
:103B8800921802430A600422154209D00199C90714
:103B980006D51A6222000223903211680B43136083
:103BA800270090373B68002B04D0200001F0B8FBB9
:103BB80000233B60338899B2002BB6D1EFF310860F
:103BC800013383F310882068354F02683A40026059
:103BD80086F31088EFF3108683F310882068314F3E
:103BE80082683A40826086F31088220020208C3256
:103BF8001060226821675268616712020AD5EFF3E4
:103C0800108183F3108822682748136803401360E3
:103C180081F31088E36E012B18D10022E266EFF3DE
:103C2800108083F3108821680F330A689A430A606A
:103C380080F310882268D169194200D013622300EA
:103C48005C3320001988FFF7F2FB6EE7200001F0D3
:103C580059FB6AE7230068331B88934200D85EE764
:103C6800EFF31080012282F3108821680F4D8B68D2
:103C78002B408B6080F310880D4B6367EFF3108146
:103C880082F310882023226810680343136081F3AD
:103C9800108844E7082299690A439A613FE7C046B9
:103CA800FFFEFFFFFEFFFFEFFFFFFFFBFFFFFFEF42
:103CB8004D3800080200F0B5843211780300022064
:103CC80001291FD01C000121883422301170206086
:103CD800EFF3108681F310880C271D682868B84315
:103CE800286086F31088EFF3108081F31088196834
:103CF80008230D682B430B6080F3108820230020D5
:103D080023601070F0BD0200F0B584321178030012
:103D1800022001291FD01C00012188342230117093
:103D28002060EFF3108681F310880C271D6828683F
:103D3800B843286086F31088EFF3108081F3108869
:103D4800196804230D682B430B6080F31088202327
:103D5800002023601070F0BD030088338C301B688E
:103D6800006818437047000070B504002569A16811
:103D7800036829436569C269294318685C4D114382
:103D880028400143196059685A48256A0140E0688B
:103D980001435960A16998682943574D2840014358
:103DA8000F209960D96A8143606A0143D9625349F7
:103DB8008B4216D10321524B5B6D0B40022B00D175
:103DC80082E08B4200D18EE0012B17D080231B02AA
:103DD8009A4200D181E0FEF7A3FF002800D180E0DD
:103DE8005BE048498B421AD10C21454B5B6D0B4077
:103DF800082B00D168E008D8002BE7D080231B02ED
:103E08009A425ED1FEF79EFE69E00C2B00D16AE073
:103E180001203D4BA36600236367A36770BD802123
:103E28003A480902834255D039481B18581E834125
:103E380018018A4226D10828EAD8FCF741F94EE948
:103E480005E9E3E9E9E90600324A616A324B4900CB
:103E58001000C95AFCF748F9656840006B08C0189B
:103E68002900FCF741F902002C4B103A9A42CFD8AE
:103E78000F23020000079A4393B2400F22680343BE
:103E8800D3602EE00828C3D8FCF71AF9A5C222C2CD
:103E98001BC2C2C2050080200002626A1E4B52008B
:103EA800D15AFCF721F965686B08C0182900FCF79E
:103EB8001BF90200194B103A9A42A9D82368D86016
:103EC8000FE0FEF73FFE88E780231B029A42BBD033
:103ED8001048E2E78A4200D07DE7FEF721FF021E84
:103EE800B3D1002095E7802000028242D5D1ACE70B
:103EF800F369FFCFFFCFFFFFFFF4FF110038014048
:103F08000010024000440040010001000048004049
:103F180000B4FFBF0024F40088740008EFFF00001D
:103F2800836A30B51A0706D50168284C4A682240CA
:103F3800846B22434A60DA0706D50168244C4A6834
:103F48002240C46A22434A609A0706D50168214C78
:103F58004A682240046B22434A605A0706D5016822
:103F68001D4C4A682240446B22434A60DA0606D553
:103F780001681A4C8A682240C46B22438A609A06F8
:103F880006D50168164C8A682240046C22438A6070
:103F98005A0610D50168134D4A68446C2A402243DA
:103FA8004A6080225203944205D14A680E4C22404E
:103FB800846C22434A601B0606D502680B49536885
:103FC8000B40C16C0B43536030BDC046FF7FFFFF01
:103FD800FFFFFDFFFFFFFEFFFFFFFBFFFFEFFFFF00
:103FE800FFDFFFFFFFFFEFFFFFFF9FFFFFFFF7FF71
:103FF800F7B504000D00170000932268D3692B4021
:104008005B1B59424B41BB4201D0002026E0089B74
:104018000133F3D0FDF774FA009BC01A089B98424D
:104028002DD8002B2BD023681A685207E5D52A0013
:104038004021403A8A43E0D0DA690826110031402D
:10404800019132420BD020001E62FFF78BF823004B
:1040580090331E600023012084342370FEBD80222B
:10406800D96912011142C8D01A622000FFF77AF804
:104078002300202290331A60019B8434237003208C
:10408800ECE70000030073B50026040090331E60BF
:10409800FDF736FA236805001B681B071FD580212A
:1040A800284B32000093890303002000FFF7A0FF8C
:1040B800B04214D0EFF31081012383F310888020DD
:1040C800226813688343136081F310882300202239
:1040D80088331A60032000238434237076BD2600B9
:1040E80023688C361B685B0723D58021154B00227B
:1040F800009320002B00C903FFF77AFF002818D08F
:10410800EFF31080012282F3108821680E4D0B68AE
:104118002B400B6080F31088EFF3108082F3108837
:1041280021688B6893438B6080F310882023336069
:10413800D0E723002022002088331A603260E0662E
:104148002067C8E7FFFFFF01DFFEFFFF70B5041E11
:1041580001D1012070BD050088352B68002B04D1E2
:10416800020084321370FFF7F7F824230121226834
:104178002B6013688B431360A36A002B02D02000C6
:10418800FFF7CEFE2000FFF7EFFD0128E1D02368FE
:1041980007495A6820000A402A215A609A688A43C7
:1041A8009A60012219680A431A60FFF76BFFD1E78A
:1041B800FFB7FFFF70B5041E01D1012070BD0500D7
:1041C80088352B68002B04D1020084321370FFF766
:1041D800C3F82423012122682B6013688B431360E2
:1041E800A36A002B02D02000FFF79AFE2000FFF7F9
:1041F800BBFD0128E1D0236809495A6820000A401C
:1042080022215A609A688A439A60082299680A4368
:104218009A60012219680A431A60FFF733FFCDE755
:10422800FFB7FFFF03005C3370B5816580241A80F7
:104238005A800023816843676401A1423CD1036925
:1042480059424B411B02FF33010060310B800300D0
:104258000021903319602231043B1960EFF3108478
:10426800012383F3108801688D682B438B6084F3E6
:10427800108880258021466E84680369AD05490150
:10428800AE423FD1050068352D8895423AD88C4218
:1042980033D1002B22D12C4B4367EFF3108101233C
:1042A80083F31088802302685B059068034393605A
:1042B80081F31088002070BD002905D10169FF2312
:1042C8000029C1D0803BBFE780246405A142BBD14F
:1042D80001697F230029B7D0403BB5E71B4B4367F3
:1042E800EFF31081012383F310880268FF33146809
:1042F8002343136081F31088CFE7144A4267002BE9
:10430800CBD0EDE78C421AD1002B0AD1104B436772
:10431800EFF31081012383F3108802681F331068BC
:104328000AE00C4B4367EFF31081012383F31088F5
:10433800026820331068FF3303431360B8E7054A67
:104348004267002BE4D0EEE7F13A00082139000873
:104358004D3800087537000803008C3370B51C68A9
:104368000223202C25D1013B002922D0002A20D06D
:10437800802384685B019C4205D10369002B02D12C
:104388000133194215D10023C36603685B681B0219
:104398000CD5EFF31085012383F31088802304687C
:1043A800DB0426683343236085F31088FFF73AFF60
:1043B8000023180070BD70477047836810B504006B
:1043C800002B05D00322010098470023A360E36077
:1043D80010BD0000154A030090421ED0144A9042B6
:1043E8001DD0144A90421CD0134A0320934217D080
:1043F800124A0130934213D0114A013093420FD030
:10440800104A013093420BD00F4A0130934207D033
:104418000E4B0E4A934206D1FEE70023F9E701202E
:1044280070470220FCE70020FAE7C046002C014054
:10443800000400400010004000140040002000402C
:10444800004001400044014000480140FFFF0000D7
:1044580070B504000069FFF7BDFF050020001030AB
:1044680000F048FC0022084BAD00EA502600250069
:10447800E260B4356436B54204D0103D2800FCF73C
:10448800CAF9F8E7200070BDD4050020F8B504008B
:1044980008000D00FFF79EFF2369002B00D0FEE700
:1044A80021001A4A80000C31815022002C322561EB
:1044B80026001370203223636363A363E3632364DA
:1044C8006364A36413705370032210363000250010
:1044D8002700E460E265236600F08CFB6435B4379E
:1044E80028001035FFF769FFBD42F9D10023084ABB
:1044F80023606360A3606361A361236263628033A6
:104508003000E261A362FEF7FFFDF8BDD40500208C
:10451800FFFF0000044B10B51868002802D00430D3
:10452800FEF7FAFC10BDC046D405002010B5FFF711
:10453800F1FF10BD044B10B55868002802D00430B4
:10454800FEF7EAFC10BDC046D4050020044B10B5A8
:104558009868002802D00430FEF7DEFC10BDC04683
:10456800D4050020044B10B5D868002802D00430C8
:10457800FEF7D2FC10BDC046D4050020044B10B590
:104588001869002802D00430FEF7C6FC10BDC046EA
:10459800D4050020044B10B55869002802D0043017
:1045A800FEF7BAFC10BDC046D4050020044B10B578
:1045B8009869002802D00430FEF7AEFC10BDC04652
:1045C800D4050020044B10B5D869002802D0043067
:1045D800FEF7A2FC10BDC046D405002010B50C2281
:1045E8000021040001F070FD00232000E36010BDED
:1045F800F8B50500070004000E006435B43728003C
:104608001035FFF7EBFFBD42F9D100233100200040
:104618002361FFF73BFF2000F8BD836810B5002B2E
:1046280001D102F091FEC368984710BD10B500286B
:1046380000D1FEE700F0DCFA0068C36E002B02D060
:104648006430FFF7EAFF10BD10B5FFF7EFFF10BDAC
:10465800030010B5002800D1FEE7007F01380728C5
:1046680012D8FBF737FD0416111211111114012489
:10467800180000F0BDFA240100686434001983684A
:10468800002B01D0FFF7C9FF10BD0324F0E7042475
:10469800EEE70224ECE710B5FFF7DAFF10BD10B51E
:1046A800FFF7D6FF10BD10B501F00EFC10BD10B518
:1046B80001F014FC10BD00007FB5002304280FD8BA
:1046C8001B4B5A6BFBF706FD030F18212A0001212B
:1046D8000A435A635B6B0B400193019BA023DB05E4
:1046E800180007B000BD02210A435A635B6B0B40F8
:1046F8000293029B0F4BF3E704210A435A635B6B57
:104708000B400393039B0C4BEAE708210A435A63C7
:104718005B6B0B400493049B084BE1E720210A43A1
:104728005A635B6B0B400593059B054BD8E7C04666
:10473800001002400004005000080050000C005017
:1047480000140050F7B5134B06001900019300F050
:10475800FFF9FFF73FFE104F8500EB59002B0DD1F5
:10476800B420FFF7A0FF01990400300000F0F0F931
:1047780001002000FFF73CFFEB591C601C68002C6F
:1047880006D02000FFF764FEB4212000FFF78FFF5A
:10479800F7BDC046C0760008D405002010B5FCF768
:1047A800AFFE10BD704710B5FCF79EFEFCF729FF61
:1047B800FFF7F8FF10BD704780210E4B4905DA6BF3
:1047C80084B00A43DA63DA6B0A4001210192019A44
:1047D8001A6C0A431A641A6C0A4080210292029ADF
:1047E8009A6B49010A439A639B6B0B400393039BA3
:1047F80004B070470010024010B5FFF7DDFFC0207D
:10480800C000FCF783FEFCF75BFEFFF7D4FF00F067
:1048180007FE0248FCF7FAFE10BDC0462000002043
:1048280010B50C220021040001F04EFC0023E360C7
:1048380010BD0000002310B501280BD114225A43E3
:10484800064B101DC0188168002902D09B181B69EF
:10485800984710BD01334008DBB2EDE7F4050020AE
:1048680010B5FFF7E7FF10BD10B5FFF7E3FF10BD68
:1048780010B50120FCF7ACFF0220FCF7A9FF10BD22
:1048880010B50420FCF7A4FF0820FCF7A1FF10BD19
:1048980070B50C241025A8B2013CFCF799FF6D00F7
:1048A800002CF8D170BD0000F8B505252E4F2F4C0F
:1048B80038002570FFF7B4FF2D4E25753000FFF73F
:1048C800AFFF2300013528332A481D70FFF7A8FFE2
:1048D800230029483C331D70FFF7A2FF2300013550
:1048E800503326481D706037FFF79AFF24483D7003
:1048F8006036FFF795FF23483570FFF791FF2300D7
:1049080021488C331D70FFF78BFF23001F48A0330D
:104918001D70FFF785FF23001D48B4331D70FFF796
:104928007FFF23001B48C8331D70FFF779FF230062
:104938001948DC331D70FFF773FF23002600F0339E
:1049480016481D70FF36FFF76BFF15487571FFF7A6
:1049580067FF14487576FFF763FF962312485B00DC
:10496800E554FFF75DFFF8BDF8050020F4050020C9
:104978000C060020200600203406002048060020EF
:104988005C0600207006002084060020980600209F
:10499800AC060020C0060020D4060020E80600204F
:1049A800FC060020100700202407002010B5044C46
:1049B800143C201DFBF72FFF024B9C42F8D110BD81
:1049C80034070020F4050020431C04D10020704760
:1049D800834204D00C310B685A1CF9D1F6E7012048
:1049E800F5E70000F7B505000C00431C00D1FEE711
:1049F8000F23484A0340C0B29B0009389F58032838
:104A08000ED8FBF767FB02263035C0232A009B012E
:104A18001A409A4204D108233F4A11680B43136095
:104A2800072628062640000F0196FFF745FE8268F4
:104A3800030094463A00032066467A435043C14334
:104A4800304398600198032852D8FBF743FB52542F
:104A58002D15C0232A009B011A409A42E0D12E4A04
:104A680010231168DAE708212B4A13688B43D6E72D
:104A7800294A10211368F9E7032050431D68019E55
:104A88000D402843013E1860012E04D8200734D574
:104A9800586838435860A406A40F012C30D0022C63
:104AA80033D0DA680A402EE06004400E84467F283E
:104AB80001D10220E1E72D070DD50F25586A060020
:104AC800380A404340434543AE4335006646704389
:104AD80005435D62EDE7186A0F2506001000504394
:104AE8004543AE4335006646704305431D62E0E723
:104AF800FEE70020C1E70120BFE75868B843C9E7CF
:104B0800D86801400A43DA60F7BDD868520001400E
:104B1800F8E7C046A07400080000014010B5431C27
:104B280007D110BD834203D18968FFF75BFFF8E71F
:104B38000C310B685A1CF5D1FEE70B685A1C01D1E1
:104B4800002002E0834201D1486870470C31F4E745
:104B5800002310B5421C02D0FFF7EFFF0300180036
:104B680010BD4B68002B02D10120404202E0834275
:104B780001D1086870470C31F3E710B5002802D05E
:104B8800FFF7EFFF10BD01204042FBE703000800DC
:104B98008B4205D0002B03D042425041404218407E
:104BA80070470000A0220D4BD20019680C480A4338
:104BB80000211A6099601A6802401A608022520126
:104BC800DA601A68074802401A60074A99611A624F
:104BD8008022064B12059A607047C04600100240BA
:104BE800FFFFF6FEFFFFFBFF3B03000000ED00E0C8
:104BF800043870470368364A88B0934217D180203A
:104C0800344A0001116C01431164126C0240009295
:104C1800009A314A934216D180212E4B49021A6CD0
:104C28000A431A641B6C0B400593059B3FE02B4A13
:104C3800934216D10220274AD16B0143D163D26B2C
:104C480002400192019A264A934216D18021214BB3
:104C580089021A6C0A431A641B6C0B400693069B64
:104C680025E0204A934216D110201A4AD16B0143FD
:104C7800D163D26B02400292029A1B4A934216D128
:104C88008021144BC9021A6C0A431A641B6C0B402E
:104C98000793079B0BE0154A93420AD120210D4B3D
:104CA800DA6B0A43DA63DB6B0B400393039B08B0B0
:104CB80070470F4A9342ACD18021064B09021A6C07
:104CC8000A431A641B6C0B400493049BEFE7C0462D
:104CD800002C014000100240004001400004004048
:104CE800004401400010004000480140001400400A
:104CF8000020004003681F4A93420BD11E491F48F9
:104D08000A6C02400A641E4A93420BD11A4A1D4992
:104D1800136C2CE01C4A93420BD102201649CA6B33
:104D28008243CA63194A93420BD1134A1849136C38
:104D38001DE0184A93420BD110200F49CA6B8243D9
:104D4800CA63154A93420BD10B4A1449136C0EE0FF
:104D5800134A934205D12021074AD36B8B43D3636F
:104D68007047104A9342CED1034A0F49136C0B4047
:104D78001364F5E7002C014000100240FFF7FFFF25
:104D880000400140FFFFFEFF0004004000440140D6
:104D9800FFFFFDFF0010004000480140FFFFFBFF40
:104DA8000014004000200040FF7FFFFF0300421C6A
:104DB8001FD0164A90421FD010D8154A90421DD0D5
:104DC80007D8144A90421BD0134A112093420FD09F
:104DD800FEE7124A132093420AD0F9E7104A90429C
:104DE80010D0104A90420FD00F4A14209342EFD1AE
:104DF80070470E204042FBE70D20F9E71220F7E745
:104E08001020F5E71520F3E71620F1E7002C014004
:104E18000014004000040040001000400020004042
:104E28000044014000480140004001400300421C8A
:104E38001FD0164A90421FD010D8154A90421DD054
:104E480007D8144A90421BD0134A112093420FD01E
:104E5800FEE7124A132093420AD0F9E7104A90421B
:104E680010D0104A90420FD00F4A14209342EFD12D
:104E780070470E204042FBE70E20F9E71220F7E7C3
:104E88001020F5E71520F3E71620F1E7002C014084
:104E980000140040000400400010004000200040C2
:104EA800004401400048014000400140F8B50400BA
:104EB800FFF7A0FE2068FFF779FF226DE16CFCF791
:104EC80031FB2068FFF772FFFCF756FB27683800B4
:104ED800FFF7ACFF05003800FFF768FF854209D0EF
:104EE8002800226DE16CFCF71DFB2068FFF79EFF90
:104EF800FCF742FBF8BD0000F0B5070004008DB0D8
:104F08000793964BA037386805912600190006923A
:104F18000493FFF71DFE924DA436290001903068D6
:104F2800FFF716FE2300A8338E4900901868FFF794
:104F38000FFE2300AC338C4902901868FFF708FE77
:104F4800290003903868FFF703FE049905003068CC
:104F5800FFF7FEFD019B0700002B02D1002D00D1B9
:104F68009EE03368013305D0009B002B02D1002F4F
:104F780000D195E02300A8331B68013303D0029BBE
:104F8800002B00D18CE02300AC331B68013303D025
:104F9800039B002B00D183E000990198FFF7F6FDF1
:104FA8002060002804D139002800FFF7EFFD2060B9
:104FB8000299FFF7EBFD03992060FFF7E7FD2060FA
:104FC80000286DD0694B984200D06BE08022684B76
:104FD800D201196B674811431963196B01401963B2
:104FE800196C114319641B6C13401B220893089B0E
:104FF8002300B0331A80019B002B00D196E02300D8
:10500800A03318685549FFF789FD009B002B05D090
:105018002300A43352491868FFF780FD00230025B8
:105028000193029BAB4207D02300A8334D4918686F
:10503800FFF774FD0135FF35039B002B08D0802353
:105048009B001D432300AC3347491868FFF766FDF2
:105058002200B1321278484B261D9200D6502368A0
:1050680000226360059BB020A360069BE561E360B6
:10507800129B22622361079B626263610C23A36116
:10508800043BE362019B0121E3632056FCF74AFAE3
:10509800009B3000002B5DD1002F5BD1FFF78AF811
:1050A8000DB0F0BD354B984213D18022304B92029F
:1050B800D96A33481143D962D96A0140D962D96B98
:1050C8001143D963DB6B13408E220993099B52006D
:1050D8008EE72C4B984212D18022254BD202D96AF6
:1050E80029481143D962D96A0140D962D96B114361
:1050F800D963DB6B13400A930A9B244A78E7244B55
:10510800984200D077E78022194B1203D96A2148C8
:105118001143D962D96A0140D962D96B1143D96365
:10512800DB6B13400B930B9B1B4A61E7002D00D1EF
:1051380074E72300A0330A491868FFF7EFFC002F33
:1051480005D02300A43305491868FFF7E7FC80233E
:105158001B0264E7FEF7FAFFA2E7C046487600089C
:10516800DC750008887500084075000800380140A3
:1051780000100240FFBFFFFF34070020004400403A
:10518800FFFFFDFF00480040FFFFFBFF1D0200007E
:10519800004C0040FFFFF7FF1D03000013B5002877
:1051A80003D0049C0094FFF7A7FE13BD10B5B130DF
:1051B8000278064B9200D058FEF7CEFD2223184005
:1051C800223843425841C0B210BDC04634070020BF
:1051D80010B5B1300278064B9200D058FEF7BCFDEE
:1051E80021231840213843425841C0B210BDC0465F
:1051F8003407002070B504000E00002802D10120F9
:10520800404270BDFFF7D2FF051EF8D12100B23130
:105218000B78B13433702078034B80000122C058DA
:10522800FFF79AF82800ECE73407002070B504006F
:105238000D0000281AD0FFF7B9FF002816D1230067
:1052480098331D6025000020B0352856FCF7A0F9DA
:105258002100B1342078064B80000122C058B231B9
:10526800FFF77AF800202856FCF786F970BDC0468B
:105278003407002070B50400150000281BD0030077
:10528800060000209C331960B0363056FCF780F9D0
:1052980023002100C233B8311B880968B134207853
:1052A800C918054B8000C058AAB2FEF757F800206D
:1052B8003056FCF761F970BD3407002010B500289E
:1052C8000BD00300A4331B68013306D1B130027838
:1052D800024B9200D058FEF7EDFC10BD34070020B9
:1052E80010B500280BD00300A4331B68013306D186
:1052F800B1300278024B9200D058FEF704FD10BD81
:1053080034070020030010B594331B68043898470D
:1053180010BD030010B598331B680438984710BDBA
:105328000122036810B5D96904000438114201D07C
:105338001A620BE00222D9691142F9D10422D96913
:105348001142F5D10822D9691142F1D1FFF72EFF98
:10535800002805D1210001222000AE31FEF7FCFF14
:1053680010BD000010B51B20FCF73CF9024B186873
:10537800FEF75EF810BDC046340700201C2010B5AB
:10538800FCF730F9034B5868002801D0FEF750F8B5
:1053980010BDC046340700201D2010B5FCF722F9C7
:1053A800054CA068002801D0FEF742F8E068002804
:1053B80001D0FEF73DF810BD34070020010010B5FC
:1053C8000122AE31FEF7C8FF10BD000003000A49F4
:1053D80010B50868C318EFF30882934205D90C2268
:1053E8000120064B40421A6010BD054A054C121BAD
:1053F8009342F4D20B60F7E748000020000A00202F
:105408000090002000040000FEE7000016220120A2
:10541800014B40421A607047000A00200120704783
:1054280030B593B03422002105A801AC00F04CFE41
:1054380010220021200000F047FE80208000FDF7A8
:1054480039F980235B000893002309930E930833EE
:105458000F9380239B0210938023022540229B05F3
:1054680005A805950A920C950D951193FDF74EF92F
:10547800002800D0FEE70723A060E0602900200094
:1054880001936560FDF7A2FB002800D0FEE713B08A
:1054980030BDAA23A8215B00C35A4900405A4033B3
:1054A800181A3F2318407047AA235B00C25A043BCE
:1054B800C35A9A4203D0FC30C26CD05C70470120BA
:1054C8004042FBE7A923AB225B005200C35C805A31
:1054D800C0B2834202D3C01A3F307047C01A0138A5
:1054E800FBE713B56B460268D97107335468190096
:1054F8000122A04716BD37B56B46DD1D2900040003
:10550800FFF778FE002810D122003F21C03213880F
:1055180001330B402100BC3109888B4205D0B434DB
:10552800118820682D784554138037BD0300010089
:1055380070B5C233C4311A880C6812193F2422404E
:105548001A800200BE3212881D880024AA4217D091
:105558001D8840321C880B4B521BA4B21A4004D53C
:105568004023013A5B421A43013240231B1B9A42F3
:1055780000D91A000A6001240349FFF77BFE644240
:10558800200070BD3F00008035550008F7B503685E
:1055980000919B68019204009847A92340275B006B
:1055A800E35A0500FF1A012323742300FC33DB6B45
:1055B80001330AD1AE235B00E25C002A05D0002249
:1055C8002000E2549430FFF779FE236820009B689E
:1055D80098470028F9D0019EBE4227D8AE4225D868
:1055E800A92327005B00E35AFC37386D9A19C018C5
:1055F800402A34D83200009900F0A6FD3500A922CF
:105608005200A35A3F219B1926000B4094363000C4
:10561800A352FFF7DDFD002806D1FC342A00300034
:105628001549E565FFF726FE0198FEBDBD4200D984
:105638003D0023682A005B68009920009847009B7A
:1056480020005B1900932368761B9B689847A92361
:105658005B00E75A133BFF3B0500DF1BBCE7402517
:10566800ED1A2A00009900F06FFD009B386D721B3F
:10567800591900F069FDC2E73555000810B5914287
:1056880001D1012149420400FC342364029BA26336
:1056980063640300AA221133E36400235200E16328
:1056A8008352020051322265AB2252006365835255
:1056B80010BD0000F7B5050000206860FA208000E2
:1056C800A8604448089C2860C8B21E282AD8E02749
:1056D800414E8000FF000F4081593943D0B21E2847
:1056E80036D8E0273C4E8000FF00174082593A43E5
:1056F800D8B21E2842D8E027374E8000FF001F404E
:1057080083593B43E0B21E284ED8E027324E800032
:10571800FF00274084593C4328000094FFF7AEFF60
:105728002800FEBDC0260E40C02E0ED1CA280CD8B7
:105738003F202A4F08408000C059E027264E8000AD
:105748008059FF0039400143C8E701214942C5E7B4
:10575800C0261640C02E0ED1CA280CD83F201F4F95
:1057680010408000C059E0271B4E80008059FF0080
:105778003A400243BCE701225242B9E7C0261E4024
:10578800C02E0ED1CA280CD83F20144F18408000D4
:10579800C059E027104E80008059FF003B4003436A
:1057A800B0E701235B42ADE7C0262640C02E0ED1EC
:1057B800CA280CD83F20094F20408000C059E02754
:1057C800054E80008059FF003C400443A4E70124B3
:1057D8006442A1E788790008F0780008C4780008D6
:1057E800F7B5037C04000D00002B16D0FBF788FEEC
:1057F800A927AB2601907F007600E25BA35B9A4263
:105808000BD0002DFAD0FBF77BFE019BC01A854216
:10581800F3D8A923A25B5B00E252F7BD10B50021C3
:10582800FFF7DEFF10BD0000CBB210B51E2B09D864
:10583800E0220F4C9B00D2000A4019591143FC305A
:10584800C16310BDC0220A40C02A0ED1CA2B0CD891
:105858003F23084C0B409B001B59E024044A9B0043
:105868009B58E40021401943E9E701214942E6E752
:10587800F0780008C4780008CBB210B51E2B09D800
:10588800E0220F4C9B00D2000A4019591143FC300A
:10589800816310BDC0220A40C02A0ED1CA2B0CD881
:1058A8003F23084C0B409B001B59E024044A9B00F3
:1058B8009B58E40021401943E9E701214942E6E702
:1058C800F0780008C47800080023F0B585B043607C
:1058D800FA239B0083601E4B050003600123FC35FF
:1058E8005B42EB631B4B04000E000392984218D1F5
:1058F800C1212000FFF798FFC0212000FFF7BCFF5F
:105908000123039A5B42012A00D1EB630093012330
:105918002000AA6BE96B5B42FFF7B0FE200005B0E0
:10592800F0BD0D4A0D4F12680D4B92003900D0584A
:10593800FFF70EF98642DBD00A493000FFF71DF960
:105948003900E8633000FFF718F9A863D8E7C046C4
:105958008879000844070020C478000848760008C1
:10596800F0780008DC7500080300FC33DB6B10B529
:10597800040001330DD10368DB689847AE235B0050
:10598800E25C002A05D120000132E2549430FFF78E
:10599800A7FC10BD0300FC3373B559665E23FF33C3
:1059A800C254573BFF3B1340023BDBB204000026C6
:1059B800042B01D81348C65C30231340302B19D16F
:1059C800C0230136DB00073E022E19D82500120736
:1059D8000D48D20F9435B600520300923258280071
:1059E800FFF7DCFB2000FFF7BFFF28000749FFF7A0
:1059F8001DFC73BD00239006E5D580230136E1E741
:105A0800FEE7C046787900086C790008FF54000862
:105A180010B50400FFF7A8FFAA23A8225B005200D4
:105A2800E15AA35A994208D02100FC31C96CC85CDC
:105A38003F2101330B40A35210BD01204042FBE738
:105A480010B5002202480349FFF73EFF10BDC046CB
:105A580044070020004C004070B505000C00081EEB
:105A680007D0FAF725FB2B680200210028005B68A5
:105A7800984770BD10B5FFF7EFFF10BD10B503686C
:105A88001B68984710BD000010B50249FFF7E4FFF6
:105A980010BDC046F873000870B50400FFF7DCFFBE
:105AA80005002000FFF7F0FF401970BD10B5FFF7A3
:105AB800F3FF10BDF0B58BB00600140024206A4631
:105AC800002312181370012C00D80A2409AD0F0006
